:020000040000FA
:020000000328D3
:040002000034003492
:0A0006000313831600308600FF305C
:100010008700031383120030A000A100A200A300F8
:10002000A400A500A600A800A900AA00AB003030DB
:10003000A7001A28A1080319C6208C208708031DD1
:1000400022281A280330AA0025282708840023081C
:1000500003398000A70A2C280030AB00F6200330BB
:10006000AF20303084000008D3200230AF200030B1
:10007000AB00F620BF30BD20840A04082702031914
:100080004228332830308400A1080319A10A8C20AB
:1000900007081E39031D4D284428A8000A30BD203A
:1000A000ED208F30BD200130AB00F6200F30BD2099
:1000B00007081E39031D5628001C5F286228801C73
:1000C00065286F28801C6A28742828080239031DB7
:1000D00079287F2828080439031D79287F282808D3
:1000E0000839031D79287F2828081039031D79282D
:1000F0007F28840A04082702031D44282528FF308E
:10010000BD20AA0B2C2884280030AB00F620033039
:10011000AF203030A7001A282014A108031920109E
:10012000A208031D2010A308031D20102018A520DD
:100130002014A20803192010A308031D2010201862
:10014000A920A308031DAD200800A1031F30A200B1
:100150000800A203FF30A3000800A3030800A400C6
:10016000FF30A500A40BB5280800FF30A600A50BA2
:10017000BA28B028A60BBA28B528A400FF30A500DD
:10018000A40BC3280800A50BC328BE280130A1007A
:10019000A01CCB28CF2814308600A01408000A30F9
:1001A0008600A0100800A900291CD728DA28A91C5D
:1001B000DD28E528A91CE128E9280230AB00F6205B
:1001C00008000430AB00F62008000830AB00F62031
:1001D00008001030AB00F6200800A81800302819DD
:1001E0000130A8190230281A0330D3282A08033C0A
:1001F000031905292A08023C031909292A08013C88
:1002000003190D292A08031911292B08E138860042
:1002100008002B086138860008002B08213886006A
:1002200008002B08013886000800003086001729D6
:02400E00BB3FB6
:00000001FF
